:020000040800F2
:1000000000200020C5220008152300081523000841
:1000100000000000000000000000000000000000E0
:100020000000000000000000000000001523000890
:100030000000000000000000152300081523000840
:1000400015230008152300081523000815230008B0
:1000500015230008152300081523000815230008A0
:100060001523000815230008152300081523000890
:100070001523000815230008152300081523000880
:100080001523000815230008152300081523000870
:100090001523000815230008152300081523000860
:1000A0001523000815230008152300081523000850
:1000B0001523000815230008152300081523000840
:1000C00080B582B000AF7860124B1B68FA229100B5
:1000D000180001F0E3FF03001A000F4B013A5A60C9
:1000E0000D4B00229A600C4B05221A6006E0C046B8
:1000F000094B1A6880235B021340F9D07B685A1EB3
:100100007A60002BF3D1044B00221A60C046BD4632
:1001100002B080BD0000002010E000E080B500AF1C
:1001200001210C2000F084FF0D4B1A680C4B0C21B0
:100130008A431A600A4B1A68094B04210A431A6061
:10014000074B5A68064B02218A435A60054B1A68CE
:10015000044B03218A431A60C046BD4680BDC04699
:10016000000C01400008014080B584B000AF80233E
:100170005B010121180000F03BFF3B00180001F07B
:1001800067F93B0000221A703B0001225A703B00C5
:10019000E02212035A603B0000229A603B000122D9
:1001A0001A733B000B4A1900100001F0FDF80948D2
:1001B00006230122002101F04DFA064B012118000F
:1001C00001F05DF90120FFF77BFFC046BD4604B09A
:1001D00080BDC0460008024080B500AF0C4B012135
:1001E000180001F0B6F9C046094B0221180001F0D1
:1001F0007CFD031EF8D0064B0221180001F095FD8E
:10020000034B180001F018FB03001800BD4680BD29
:100210000008024090B583B000AF00F023F8FFF76C
:100220007DFFFFF7A1FFBC1DFFF7D6FF0300238072
:10023000BB1D1A88FA239B009A4206D9084B5A69BB
:10024000074B02210A435A6105E0054B5A69044BEA
:1002500002218A435A61C820FFF732FFE3E7C04614
:10026000000C014080B500AF184B1A68174B0121F4
:100270000A431A60154B5A68144B15490A405A60D4
:10028000124B1A68114B13490A401A600F4B1A6837
:100290000E4B11490A401A600C4B5A680B4B0F4920
:1002A0000A405A60094BE0229201DA62074BBF22F2
:1002B00012049A600A4B1A68094B10210A431A600B
:1002C00000F0CCF8C046BD4680BDC04600100240DC
:1002D0000000FF21FFFFF6FEFFFFBFFFFFFF00FE54
:1002E0000020024080B586B000AF00237B61002370
:1002F0003B610023FB600023BB6000237B60504B0D
:100300005B68504A13407B617A6980231B029A42E2
:1003100000D17BE07A6980231B029A4200D979E000
:100320007B69494A93426CD07B69474A934200D922
:1003300070E07A698023DB019A4213D07A698023C6
:10034000DB019A4266D87B69002B03D07B69082BBE
:1003500004D05FE03D4B3E4A1A605FE03B4B3C4AB5
:100360001A605BE0364B5A68F0231B0313403B6175
:10037000334B5A68C0239B031340FB60304B5A68D1
:10038000C0231B041340BB603B691B0C03333B6160
:100390007B681B0E0CD139690A005201521A930175
:1003A0009B1ADB005B185B021A00284B1A600BE0FB
:1003B00039690A005201521A93019B1ADB005B183B
:1003C0005B021A00214B1A60FB681B0D0133FB60B6
:1003D0001E4B1B68F968180001F060FE03001A004C
:1003E0001A4B1A60BB689B0D0133BB60174B1B682F
:1003F000B968180001F052FE03001A00134B1A608E
:100400000CE0124B802212021A6007E00F4B114AD7
:100410001A6003E00D4B0E4A1A60C046084B5B6839
:100420001B090F2213400C4AD35C7B61074B1A68EF
:100430007B69DA40054B1A60C046BD4606B080BDF8
:100440000010024008C0000008400000000000202A
:1004500000127A00307500004823000880B584B08F
:1004600000AF0023BB600023FB60FB1D00221A705D
:100470003E4B1A683D4B01210A431A603B4B1B68F7
:1004800002221A40FB1D511E8A411A70FB6801337B
:10049000FB60FB1D1B7801225340DBB2002B04D014
:1004A000FA68A023DB009A42E8D1304B1B68022295
:1004B0001A40FB1D511E8A411A70FB1D1B78012238
:1004C0005340DBB2002B01D0C046FDE7284B1A6831
:1004D000274B03218A431A60254B1A68244B0221BB
:1004E0000A431A60214A214B52685A601F4B5A68CE
:1004F0001E4B20490A405A601C4B5A681B4B1E4930
:100500000A405A60194B5B68BB60BB68C02292020C
:100510001343BB60154BBA685A60144B1A68134BEF
:10052000802149040A431A60C046104B1A68802390
:100530009B041340F9D00D4B5A680C4B07218A439A
:100540005A600A4B5A68094B02210A435A60C04656
:10055000064B5B68094A1A408023DB019A42F7D1B7
:10056000C046C046BD4604B080BDC0460010024033
:1005700000200240FFFF3FFFFFFFC0FE08C0000059
:1005800080B500AF144B1A68134B01210A431A605F
:10059000114B5A68104B11490A405A600E4B1A68A9
:1005A0000D4B0F490A401A600B4B1A680A4B0D4954
:1005B0000A401A60084B5A68074B0B490A405A60B8
:1005C000054BE0229201DA62034BBF2212049A60CB
:1005D000C046BD4680BDC046001002400000FF215D
:1005E000FFFFF6FEFFFFBFFFFFFF00FE80B582B0FA
:1005F00000AF7860154B1A68144B15490A401A6011
:10060000124B1A68114B13490A401A607A6880230A
:100610005B029A4205D07A688023DB029A4208D0B6
:100620000FE00A4B1A68094B802149020A431A60FD
:1006300007E0064B1A68054BA021C9020A431A605D
:10064000C046C046BD4602B080BDC0460010024054
:10065000FFFFFEFFFFFFFBFF90B583B000AF00235D
:100660003B60FB1D00221A70BB1D00221A70BC1DCE
:10067000312000F0D7FD030023703B6801333B605D
:100680003A6880239B019A4203D0BB1D1B78002B44
:10069000EDD0312000F0C6FD031E03D0FB1D01226A
:1006A0001A7002E0FB1D00221A70FB1D1B78180057
:1006B000BD4603B090BD80B582B000AF78600A4BF4
:1006C0001A68094B01218A431A607B68012B06D105
:1006D000054B1A68044B01210A431A6000E0C0462A
:1006E000C046BD4602B080BD0010024090B583B048
:1006F00000AF00233B60FB1D00221A70BB1D0022CF
:100700001A70BC1D212000F08DFD030023703B6892
:1007100001333B603A68A023DB009A4203D0BB1D43
:100720001B78002BEDD0212000F07CFD031E03D0B0
:10073000FB1D01221A7002E0FB1D00221A70FB1D36
:100740001B781800BD4603B090BD80B584B000AFE3
:100750000200FB1D1A700023FB600A4B1B68FB6044
:10076000FB68F8229343FB60FB1D1B78DB00FA68F3
:100770001343FB60034BFA681A60C046BD4604B0E1
:1007800080BDC0460010024080B582B000AF0200BC
:10079000FB1D1A70FB1D1B78012B06D1084B1A6834
:1007A000074B01210A431A6005E0054B1A68044B08
:1007B00001218A431A60C046BD4602B080BDC046D2
:1007C0000010024080B586B000AFF860B9607A6072
:1007D0003B6000237B6100233B611B4B5A681A4B33
:1007E0001A490A405A60184B5B687B617B69184A5A
:1007F00013407B61FB68002B04D0FA6880235B0404
:100800009A420AD1FA68BB681A437B681A433B686C
:1008100013437A6913437B610EE00B4B1B683B610A
:100820007A693B6813437B613B698022D20313439F
:100830003B61054B3A691A60034B7A695A60C046BE
:10084000BD4606B080BDC04600100240FFFF3FFF1E
:10085000FFFFC0FE80B582B000AF0200FB1D1A7022
:10086000FB1D1B78012B07D1084B1A68074B802111
:1008700049040A431A6005E0044B1A68034B044913
:100880000A401A60C046BD4602B080BD001002405A
:10089000FFFFFFFE80B582B000AF0200FB1D1A70A3
:1008A000FB1D1B78012B07D1084B1A68074B8021D1
:1008B00009040A431A6005E0044B1A68034B044913
:1008C0000A401A60C046BD4602B080BD001002401A
:1008D000FFFF7FFF80B584B000AF78600023FB602E
:1008E000084B5B68FB60FB6807229343FB60FA6878
:1008F0007B681343FB60034BFA685A60C046BD46F1
:1009000004B080BD0010024080B500AF034B5B68AF
:10091000034A13401800BD4680BDC0460010024087
:1009200008C0000080B584B000AF78600023FB6091
:10093000084B5B68FB60FB68F0229343FB60FA683E
:100940007B681343FB60034BFA685A60C046BD46A0
:1009500004B080BD0010024080B584B000AF786064
:100960000023FB60084B5B68FB60FB68074A134091
:10097000FB60FA687B681343FB60034BFA685A60BC
:10098000C046BD4604B080BD00100240FFF8FFFF26
:1009900080B584B000AF78600023FB60094B5B68D2
:1009A000FB60FB68084A1340FB607B68DB00FA6869
:1009B0001343FB60034BFA685A60C046BD4604B05F
:1009C00080BDC04600100240FFC7FFFF80B582B067
:1009D00000AF0200FB1D1A70BB1D0A1C1A70BB1D64
:1009E0001B78002B08D00B4B1968FB1D1B781A02D3
:1009F000084B0A431A6008E0064B1A68FB1D1B7877
:100A00001B02D943034B0A401A60C046BD4602B0E0
:100A100080BDC0460810024080B584B000AF786049
:100A20000023FB60084BDB6AFB60FB685B005B0834
:100A3000FB60FA687B681343FB60034BFA68DA6279
:100A4000C046BD4604B080BD0010024080B584B0F1
:100A500000AF786039600023FB600D4BDB6AFB6000
:100A6000FB680C4A1340FB60FB680B4A1340FB60B9
:100A7000FA687B681343FB60FA683B681343FB60CA
:100A8000034BFA68DA62C046BD4604B080BDC0467A
:100A900000100240FFFBFFFFFF07FFFF80B584B09F
:100AA00000AF78600A00FB1C1A700023FB600D4B3E
:100AB000DB6AFB60FB680C4A1340FB60FB1C1B7885
:100AC000002B04D0FA687B681343FB6003E0FB68EB
:100AD000064A1340FB60034BFA68DA62C046BD4623
:100AE00004B080BD001002400FFEFFFFFFFEFFFFBD
:100AF00080B584B000AF78600023FB60084BDB6AF0
:100B0000FB60FB680F229343FB60FA687B6813432A
:100B1000FB60034BFA68DA62C046BD4604B080BD94
:100B20000010024080B582B000AF7860074BDA6AEF
:100B3000064B07490A40DA62044BD96A034B7A68CC
:100B40000A43DA62C046BD4602B080BD00100240D2
:100B5000FFFF1FFF80B500AF034BDA6AE0231B04E1
:100B600013401800BD4680BD0010024080B582B021
:100B700000AF7860084BDA6A074B08490A40DA622E
:100B8000054BD96A7B685A06034B0A43DA62C046B2
:100B9000BD4602B080BDC04600100240FFFFFFF11D
:100BA00080B500AF034BDB6A5B0E072213401800D1
:100BB000BD4680BD0010024080B584B000AF020089
:100BC000FB1D1A700023FB60104B1B68FB60FB6869
:100BD0000F4A1340FB60FB1D1B78032B03D9FB1D41
:100BE00003221A7005E0FB1DFA1D127803210A404A
:100BF0001A70FB1D1B785B02FA681343FB60034B02
:100C0000FA681A60C046BD4604B080BD08180040AE
:100C1000FFF9FFFF80B582B000AF0200FB1D1A7024
:100C2000BB1D0A1C1A70124B1A68114B14218A43FF
:100C30001A60FB1D1B78042B02D0102B0CD012E085
:100C40000B4B1A680A4B04210A431A60BB1D1B7820
:100C50001800FFF7B1FF06E0054B1A68044B10219E
:100C60000A431A60C046C046BD4602B080BDC046B9
:100C70002010024080B582B000AF0200FB1D1A7048
:100C8000FB1D1B78012B06D1084B1A68074B01216D
:100C90000A431A6005E0054B1A68044B01218A4398
:100CA0001A60C046BD4602B080BDC046201002405A
:100CB00080B582B000AF7860074B1A6A064B60219E
:100CC0008A431A62044B196A034B7A680A431A6210
:100CD000C046BD4602B080BD0010024080B500AFE6
:100CE000034B1B6A602213401800BD4680BDC046FE
:100CF0000010024080B582B000AF0200FB1D1A70E8
:100D0000FB1D1B78012B06D1084B1A68074B80216D
:100D10000A431A6005E0054B1A68044B80218A4398
:100D20001A60C046BD4602B080BDC04620100240D9
:100D300080B582B000AF0200FB1D1A70FB1D1B784E
:100D4000002B07D0084B1A6A074B802149000A4341
:100D50001A6205E0044B1A6A034B04490A401A62FE
:100D6000C046BD4602B080BD00100240FFFEFFFF3E
:100D700080B582B000AF7860074B1A6A064B07490E
:100D80000A401A62044B196A034B7A680A431A62D2
:100D9000C046BD4602B080BD00100240FFFDFFFF0F
:100DA00080B500AF034B1A6A80239B0013401800E4
:100DB000BD4680BD0010024080B58AB000AF7860AB
:100DC00000237B6200233B620023FB610023BB61A5
:100DD00000237B6100233B610023FB607C4B5A684E
:100DE000F0231B031340FB61794B5A68C0239B031C
:100DF0001340BB61764B5A68C0231B0413407B61D0
:100E0000734B5A6880235B0413403B61FB691B0CE6
:100E10000333FB613B691B0E0AD1F9690A005201D9
:100E2000521A93019B1ADB005B185B023B6209E0DC
:100E3000F9690A005201521A93019B1ADB005B18F0
:100E40005B023B62BB691B0D0133BB61B969386A48
:100E500001F024F903003B627B699B0D01337B6148
:100E60007969386A01F01AF903003B62584B5B68F4
:100E7000584A13407B627A6A80231B029A422ED022
:100E80007A6A80231B029A422DD87B6A524A934287
:100E900020D07B6A504A934225D87A6A8023DB01AE
:100EA0009A4213D07A6A8023DB019A421BD87B6A6C
:100EB000002B03D07B6A082B04D014E07B68474AE0
:100EC0001A6014E07B68454A1A6010E07B683A6A51
:100ED0001A600CE07B68802212021A6007E07B68CF
:100EE0003F4A1A6003E07B683C4A1A60C046384BB0
:100EF0005B68F02213407B627B6A1B097B627B6A22
:100F0000072B01D800237B62364A7B6AD3181B78F3
:100F1000FB607B681A68FB68DA407B685A602C4B80
:100F20005A68E023DB0013407B627B6A1B0A7B620A
:100F30002C4A7B6AD3181B78FB607B685A68FB6875
:100F4000DA407B689A60224B5A68E0239B01134089
:100F50007B627B6ADB0A7B62224A7B6AD3181B783E
:100F6000FB607B685A68FB68DA407B68DA60184B84
:100F7000DB6A0F2213407B621B4A7B6AD3181B7803
:100F8000FB607B685B68F968180001F087F8030074
:100F90001A007B685A610E4BDA6AF8235B00134033
:100FA0007B627B6A1B097B627B6A0F221A400F4BB4
:100FB0005200D35AFB60F968386A01F06FF80300F9
:100FC0001A007B681A61C046BD460AB080BDC046A3
:100FD0000010024008C000000840000000127A0023
:100FE00030750000582300086823000878230008A3
:100FF00080B582B000AF78600A00FB1C1A70FB1C41
:101000001B78002B06D0094B5969084B7A680A43B4
:101010005A6106E0054B5A697B68D943034B0A4085
:101020005A61C046BD4602B080BDC04600100240B5
:1010300080B582B000AF78600A00FB1C1A70FB1C00
:101040001B78002B06D0094B9969084B7A680A4334
:101050009A6106E0054B9A697B68D943034B0A40C5
:101060009A61C046BD4602B080BDC0460010024035
:1010700080B582B000AF78600A00FB1C1A70FB1CC0
:101080001B78002B06D0094BD969084B7A680A43B4
:10109000DA6106E0054BDA697B68D943034B0A4005
:1010A000DA61C046BD4602B080BDC04600100240B5
:1010B00080B582B000AF78600A00FB1C1A70FB1C80
:1010C0001B78002B06D0094B996A084B7A680A43B3
:1010D0009A6206E0054B9A6A7B68D943034B0A4043
:1010E0009A62C046BD4602B080BDC04600100240B4
:1010F00080B582B000AF78600A00FB1C1A70FB1C40
:101100001B78002B06D0094BD968084B7A680A4334
:10111000DA6006E0054BDA687B68D943034B0A4086
:10112000DA60C046BD4602B080BDC0460010024035
:1011300080B582B000AF78600A00FB1C1A70FB1CFF
:101140001B78002B06D0094B1969084B7A680A43B3
:101150001A6106E0054B1A697B68D943034B0A40C4
:101160001A61C046BD4602B080BDC04600100240B4
:1011700080B582B000AF0200FB1D1A70FB1D1B780A
:10118000002B07D0094B1A68084B802109030A433A
:101190001A6006E0054B1968044B802212030A40CE
:1011A0001A60C046BD4602B080BDC0460010024075
:1011B00080B584B000AF78600023FB60084B5B68AB
:1011C000FB60FB681B011B09FB60FA687B6813432B
:1011D000FB60034BFA685A60C046BD4604B080BD50
:1011E0000010024080B584B000AF0200FB1D1A70F1
:1011F0000023FB60094B5B68FB60FB68084A1340F7
:10120000FB60FB1D1B785B06FA681343FB60034B16
:10121000FA685A60C046BD4604B080BD0010024066
:10122000FFFFFFF180B586B000AF0200FB1D1A7012
:101230000023FB6000237B611323FB1800221A703C
:10124000FB1D1B785B09DBB2FB60FB68012B03D144
:10125000144B1B687B6109E0FB68022B03D1114B27
:101260001B6A7B6102E00F4B5B6A7B61FB1D1B7895
:101270001F221340FB607A69FB68DA4013000122E9
:10128000134004D01323FB1801221A7003E0132328
:10129000FB1800221A701323FB181B781800BD4698
:1012A00006B080BD0010024080B500AF074B5A6AFF
:1012B000064B01210A435A62044B5A6A034B01212F
:1012C0008A435A62C046BD4680BDC04600100240F7
:1012D00080B584B000AF0200FB1D1A700F217B188F
:1012E00000221A700A4B9B68FA1D1278134003D033
:1012F0007B1801221A7003E00F23FB1800221A70DA
:101300000F23FB181B781800BD4604B080BDC046F3
:101310000010024080B582B000AF7860044B99683D
:10132000034B7A680A439A60C046BD4602B080BD4E
:101330000010024080B582B000AF0200FB1D1A70A1
:10134000FB1D1B78012B07D1084B9A68074B8021A6
:10135000C9010A439A6005E0044B9A68034B0449AB
:101360000A409A60C046BD4602B080BD00100240EF
:10137000FFBFFFFF80B582B000AF78607B68094A8D
:1013800093420BD180235B0101211800FFF790FEEF
:1013900080235B0100211800FFF78AFEC046BD468E
:1013A00002B080BD0008024080B584B000AF786014
:1013B00039600023FB600B203B1800221A707B6809
:1013C0005B68FB60FB681F4A1340FB603B681B784F
:1013D0001B02FA681343FB607B68FA685A607B68FB
:1013E0009B68FB60FB68184A1340FB603B689A6887
:1013F0003B685B681A433B685B785B001343FA68A1
:101400001343FB607B68FA689A607B681B6BFB6028
:10141000FB680E4A1340FB603B681B7B013BD9B263
:101420003B183A1812780A431A703B181B781B05B0
:10143000FA681343FB607B68FA681A63C046BD46CE
:1014400004B080BDFFFEFFFFFDF7F1FFFFFF0FFFC0
:1014500080B582B000AF78607B6800221A707B682C
:1014600000225A707B6800225A607B6800229A60D2
:101470007B6801221A73C046BD4602B080BD80B5AC
:1014800082B000AF78600A00FB1C1A70FB1C1B784E
:10149000002B06D07B689B6801221A437B689A6008
:1014A00006E07B689B68012293431A007B689A6080
:1014B000C046BD4602B080BD80B582B000AF786046
:1014C0000A00FB1C1A70FB1C1B78002B07D07B68E2
:1014D0009B68802252001A437B689A6005E07B6813
:1014E0009B68044A1A407B689A60C046BD4602B0B9
:1014F00080BDC046FFFEFFFF80B584B000AF7860BE
:1015000008001100BB1C021C1A807B1C0A1C1A70EC
:101510000F217B1800221A707B18BA1C12881A70CF
:101520007B1C1B78002B07D07B685A687B181B78C4
:101530001A437B685A6008E07B685B680F22BA1820
:101540001278D2431A407B685A60C046BD4604B048
:1015500080BD80B582B000AF78600A00FB1C1A70B5
:10156000FB1C1B78002B07D07B689B68A022D20352
:101570001A437B689A6005E07B689B68034A1A40BF
:101580007B689A60C046BD4602B080BDFFFFAFFFDA
:1015900080B584B000AF78600F217B1800221A70EC
:1015A0007B689A688023DB03134003D07B180122F9
:1015B0001A7003E00F23FB1800221A700F23FB1888
:1015C0001B781800BD4604B080BD80B584B000AF64
:1015D00078600A00FB1C1A700023FB600023BB60CC
:1015E0007B685B68FB60FB68094A1340FB60FB1C7F
:1015F0001B78013BBB60BB685B03FA681343FB606D
:101600007B68FA685A60C046BD4604B080BDC046DB
:10161000FF1FFFFF80B582B000AF78600A00FB1C9F
:101620001A70FB1C1B78002B07D07B685B6880223C
:1016300012011A437B685A6005E07B685B68044AC4
:101640001A407B685A60C046BD4602B080BDC046A5
:10165000FFF7FFFF90B585B000AF78600C00100079
:101660001900FB1C221C1A70BB1C021C1A707B1C6C
:101670000A1C1A700023FB600023BB60FB1C1B7854
:10168000072B20D97B681B69FB60FB1C1B78083B80
:101690009B000F229A401300BB60BB68DA43FB68D3
:1016A0001340FB607B1C1A78FB1C1B78083B9B00DB
:1016B0009A401300BB60FA68BB681343FB607B6809
:1016C000FA681A611DE07B685B69FB60FB1C1B7894
:1016D0009B000F229A401300BB60BB68DA43FB6893
:1016E0001340FB607B1C1A78FB1C1B789B009A4004
:1016F0001300BB60FA68BB681343FB607B68FA6841
:101700005A61BB1C1B78062B24D87B689B6BFB6043
:10171000BB1C1B785A1E13009B009B180F229A407B
:101720001300BB60BB68DA43FB681340FB60FB1C23
:101730001978BB1C1B785A1E13009B009B189940FC
:101740000B00BB60FA68BB681343FB607B68FA68F8
:101750009A634EE0BB1C1B780C2B24D87B685B6B18
:10176000FB60BB1C1B78DA1F13009B009B180F2229
:101770009A401300BB60BB68DA43FB681340FB6010
:10178000FB1C1978BB1C1B78DA1F13009B009B18ED
:1017900099400B00BB60FA68BB681343FB607B6831
:1017A000FA685A6325E07B681B6BFB60BB1C1B78E7
:1017B0000D3B1A0013009B009B180F229A40130048
:1017C000BB60BB68DA43FB681340FB60FB1C197805
:1017D000BB1C1B780D3B1A0013009B009B18994003
:1017E0000B00BB60FA68BB681343FB607B68FA6858
:1017F0001A63C046BD4605B090BD80B582B000AF4B
:1018000078600A00FB1C1A70FB1C1B78002B07D0A9
:101810007B689B68802252031A437B689A6005E0CC
:101820007B689B68034A1A407B689A60C046BD4645
:1018300002B080BDFFFFEFFF80B582B000AF7860DF
:101840007B681B6D9BB21800BD4602B080BD80B5A1
:1018500082B000AF78600A00FB1C1A70FB1C1B787A
:10186000002B07D07B685B688022D2001A437B681C
:101870005A6005E07B685B68034A1A407B685A60DF
:10188000C046BD4602B080BDFFFBFFFF80B582B001
:1018900000AF78600A00FB1C1A70FB1C1B78002B41
:1018A00007D07B685B68802252011A437B685A60CC
:1018B00005E07B685B68044A1A407B685A60C04652
:1018C000BD4602B080BDC046FFEFFFFF80B584B0CB
:1018D00000AF786039600023FB607B689B68FB6029
:1018E000FB68074A1340FB60FA683B681343FB60E0
:1018F0007B68FA689A60C046BD4604B080BDC046A9
:10190000FF8FFFFF80B582B000AF78600A00FB1C3C
:101910001A70FB1C1B78002B07D07B689B68802209
:1019200012021A437B689A6005E07B689B68044A50
:101930001A407B689A60C046BD4602B080BDC04672
:10194000FF7FFFFF80B582B000AF78600A00FB1C0C
:101950001A70FB1C1B78002B07D07B689B688222C7
:1019600092031A437B689A6005E07B689B68044A8F
:101970001A407B689A60C046BD4602B080BDC04632
:10198000FF7FDFFF80B584B000AF78600F217B1848
:1019900000221A707B689A6880239B03134003D04F
:1019A0007B1801221A7003E00F23FB1800221A7023
:1019B0000F23FB181B781800BD4604B080BD90B5FE
:1019C00087B000AF78600C0010001900FB1C221CCF
:1019D0001A70BB1C021C1A707B1C0A1C1A70002394
:1019E0007B6100233B610023FB60FB1C1B78072B02
:1019F00020D97B681B697B61FB1C1B78083B9B0023
:101A00000F229A4013003B613B69DA437B69134024
:101A10007B617B1C1A78FB1C1B78083B9B009A405F
:101A200013003B617A693B6913437B617B687A6988
:101A30001A611DE07B685B697B61FB1C1B789B0066
:101A40000F229A4013003B613B69DA437B691340E4
:101A50007B617B1C1A78FB1C1B789B009A4013004F
:101A60003B617A693B6913437B617B687A695A61A0
:101A70007B68DB6B7B617B691B0D03221340FB6082
:101A8000FB68DBB2BA1C1278D31ADBB20233DBB2CA
:101A90001A0013009B009B180F229A4013003B6111
:101AA0003B69DA437B6913407B61FB1C1A78FB6856
:101AB000DBB2B91C0978CB1ADBB20233DBB21900F6
:101AC0000B009B005B189A4013003B617A693B69ED
:101AD00013437B617B687A69DA63C046BD4607B011
:101AE00090BD80B584B000AF78600A00FB1C1A700E
:101AF0000023FB600023BB607B68DB6BFB60FB6843
:101B0000094A1340FB60FB1C1B78013BBB60BB68B0
:101B10001B05FA681343FB607B68FA68DA63C0460A
:101B2000BD4604B080BDC046FFFFCFFF80B584B086
:101B300000AF786008001100FB1C021C1A703B000B
:101B40000A1C1A800023FB607B68FB60FB1C1A7870
:101B5000FB68D318FB60FB683A0012881A60C04625
:101B6000BD4604B080BD80B584B000AF78600A0087
:101B7000FB1C1A700023FB607B68FB60FB1C1A785F
:101B8000FB68D3182833FB60FB681B689BB2180006
:101B9000BD4604B080BD80B584B000AF78603960C8
:101BA0000023FB607B685B68FB60FB68064A1340B0
:101BB000FB60FA683B681343FB607B68FA685A6015
:101BC000C046BD4604B080BDFFFD3FFF80B582B07A
:101BD00000AF786008001100BB1C021C1A803B009B
:101BE0000A1C1A80BB1C1A887B689A623B001A8800
:101BF0007B68DA62C046BD4602B080BD80B584B065
:101C000000AF78600A00FB1C1A700023FB607B6841
:101C10005B68FB60FB681F229343FB60FB1C1B7827
:101C2000FA681343FB607B68FA685A60C046BD4699
:101C300004B080BD80B582B000AF0200FB1D1A70F9
:101C4000FB1D1B78002B07D0084B9A68074B80219F
:101C500009040A439A6005E0044B9A68034B04495F
:101C60000A409A60C046BD4602B080BD00080240EE
:101C7000FFFF7FFF80B582B000AF0200FB1D1A702E
:101C8000FB1D1B78002B06D0084B5A6D074B022119
:101C90000A435A6505E0054B5A6D044B02218A43FD
:101CA0005A65C046BD4602B080BDC046000802402D
:101CB00080B582B000AF78607B685B6D1022934383
:101CC0001A007B685A65C046BD4602B080BD80B52B
:101CD00082B000AF78607B685B6D10221A437B682E
:101CE0005A65C046BD4602B080BD80B584B000AF25
:101CF00078600A00FB1C1A700F217B1800221A70F2
:101D00007B681B68FA1C1278134003D07B180122F1
:101D10001A7003E00F23FB1800221A700F23FB1820
:101D20001B781800BD4604B080BD80B582B000AFFE
:101D300078600A00FB1C1A70FB1C1B78DB437F22B7
:101D40001A407B681A60C046BD4602B080BD80B5AF
:101D500086B000AF78600A00BB1C1A8017217B1880
:101D600000221A7000233B610023FB60BB1C1B8810
:101D70001B0A9BB23B617B685B68BA1C1288D2B2BB
:101D80001340FB607B681B683A69134006D0FB6810
:101D9000002B03D07B1801221A7003E01723FB18D5
:101DA00000221A701723FB181B781800BD4606B0D6
:101DB00080BD80B584B000AF78600A00BB1C1A807B
:101DC0000F217B1800221A70BB1C1B881B0A9AB2B9
:101DD0007B181A707B181B78DB437F221A407B68C4
:101DE0001A60C046BD4604B080BD80B584B000AF67
:101DF000786039600023FB607B685B6DFB603B684B
:101E00001B78002B04D0FB6801221343FB6003E026
:101E1000FB6801229343FB603B685B78002B04D096
:101E2000FB6802221343FB6003E0FB68022293433A
:101E3000FB603B689B78002B05D0FB6880229200FA
:101E40001343FB6003E0FB68114A1340FB603B68EF
:101E5000DB78002B05D0FB68802252001343FB6027
:101E600003E0FB680B4A1340FB60FB6810229343BE
:101E7000FB603B681B79012B03D1FB6810221343E5
:101E8000FB607B68FA685A65C046BD4604B080BDF9
:101E9000FFFDFFFFFFFEFFFF80B584B000AF78605D
:101EA0000A00FB1C1A700F217B1800221A707B6835
:101EB0005B6DFA1C1278134003D07B1801221A7054
:101EC00003E00F23FB1800221A700F23FB181B7866
:101ED0001800BD4604B080BD80B582B000AF0200DE
:101EE0003960FB1D1A70FB1D1B78002B0ED180235F
:101EF0005B0000211800FEF7D1FD3B681800FEF7DB
:101F0000F7FD0A4B1800FFF7D3FE0BE03B680121F9
:101F10001800FEF7C3FD0020FEF7EAFD034B180092
:101F2000FFF7D5FEC046BD4602B080BD00080240A6
:101F300090B587B000AF78600C0010001900FB1C52
:101F4000221C1A70BB1C021C1A707B1C0A1C1A7003
:101F500000237B6100233B610023FB600023BB6007
:101F60007B68DB6B7B617B691B0D03221340FB608D
:101F7000FB68DBB2BA1C1278D31ADBB20233DBB2D5
:101F80001A0013005B009B18043307229A401300C9
:101F90003B617B68DB6D7B613B69DA437B691340A6
:101FA0007B61FB1C1A78FB68DBB2B91C0978CB1A81
:101FB000DBB20233DBB219000B005B005B180433A9
:101FC0009A4013003B617A693B6913437B617B68EC
:101FD0007A69DA65FB68DBB2BA1C1278D31ADBB215
:101FE0000233DBB21A0001239340BB60BB68DA43C3
:101FF0007B6913407B617B1C1B78FA68D2B2B91CE9
:1020000009788A1AD2B20232D2B29340BB607A699E
:10201000BB6813437B617B687A69DA65C046BD465D
:1020200007B090BD80B584B000AF78600A00BB1CDB
:102030001A800023FB600023BB607B68DB6DFB60C4
:10204000FB68094A1340FB60BB1C1B88BB60BB6874
:102050001B04FA681343FB607B68FA68DA65C046C4
:10206000BD4604B080BDC046FFFF00FC80B582B015
:1020700000AF7860034B7A68DA65C046BD4602B0AF
:1020800080BDC0460008024080B500AF024BDB6D4A
:102090001800BD4680BDC04600080240002934D06B
:1020A0000123002210B488422CD301242407A1422A
:1020B00004D2814202D209011B01F8E7E400A142E7
:1020C00004D2814202D249005B00F8E7884201D382
:1020D000401A1A434C08A04202D3001B5C0822435A
:1020E0008C08A04202D3001B9C082243CC08A042CB
:1020F00002D3001BDC082243002803D01B0901D0B7
:102100000909E3E7100010BC704701B5002000F09A
:102110000BF802BD0029F8D003B5FFF7C1FF0EBCD4
:102120004243891A1847C0467047C04610B501009F
:1021300000230022002000F04DF810BD70B50D4BBB
:102140000D4D5E1BB610AB4205D0002408CD013406
:102150009847A642FAD800F0EBF8084B084D5E1BF2
:10216000B610AB4205D0002408CD01349847A642F2
:10217000FAD870BD9823000898230008A02300080F
:102180009823000870B5074C074D641BA41005D0B8
:10219000013CA300EB589847002CF9D100F0CEF891
:1021A00070BDC046A4230008A02300087047C046A5
:1021B0007047C0467047C0467047C0467047C0462B
:1021C0007047C04601207047012070477047C046E5
:1021D0007047C046F0B5D6464F4646469846244B13
:1021E000C0B5060018689A460F009146FFF7E8FF51
:1021F000204B1D68002D32D053466C6818681F2C88
:1022000030DC002E0CD1631C0234A4006B606751DB
:10221000FFF7DEFF0020E0BCBA46B146A846F0BD9D
:1022200049468822A300EB189950C42149008C46E6
:10223000AC446146873AA240096891461143624620
:1022400011608421424649005A50022EDBD12900F8
:102250004A468D31FF310B6813430B60D3E7064DBF
:102260001D60C9E7FFF7B4FF01204042D3E7C04635
:1022700004000020B80100202800002010B5064C02
:102280002378002B07D1054B002B02D0044800E037
:1022900000BF0123237010BDBC010020000000001E
:1022A00030230008044B10B5002B03D00349044829
:1022B00000E000BF10BDC04600000000C0010020CB
:1022C000302300080D4885460D480E490E4A00236C
:1022D00002E0D458C4500433C4188C42F9D30B4ADA
:1022E0000B4C002301E013600432A242FBD3FDF744
:1022F000B9FFFFF723FFFDF78DFFFEE70020002069
:102300000000002008000020A4230008080000208E
:10231000D8010020FEE70000034B10B5002B02D0CF
:102320000248FFF703FF10BD0000000085210008F0
:10233000F8B5C046F8BC08BC9E467047F8B5C04624
:08234000F8BC08BC9E46704782
:10234800000000000000000001020304060708095D
:102358000000000001020304010203040607080943
:1023680001020406080A0C1020202020202020202A
:10237800010002000400060008000A000C0010001A
:102388002000400080000001000100010001000160
:0823980019230008A52200082A
:0423A0007D22000892
:0823A400006CDC0220000020A7
:04000005080022C508
:00000001FF
